:1000000012C02CC0F0C02AC029C028C027C026C0FA
:1000100025C024C023C022C05FC020C01FC01EC096
:100020001DC01CC01BC011241FBECFE5D4E0DEBF25
:10003000CDBF10E0A0E6B0E0ECEAF2E002C005902F
:100040000D92A436B107D9F710E0A4E6B0E001C0E4
:100050001D92A938B107E1F70FD126C1D1CF5D9B21
:10006000FECF8CB95E9BFECF089589E189B910BCA3
:1000700088E08AB986E880BD08951F93CF93DF9307
:10008000C82F1FB7F894E82FE150E33028F4F0E0D0
:10009000E05AFF4FD08101C0D0E08FEFE0DF8AEA65
:1000A000DEDF8EE2DCDF8C2FDADF8FEFD8DF8AEA4B
:1000B000D6DF8EE2D4DF8C2FD2DF8FEFD0DF8AEA5B
:1000C000CEDF8EE2CCDF8C2FCADF8D2FC8DF1FBFC3
:1000D000DF91CF911F9108951F920F920FB60F924B
:1000E00011248F939F93EF93FF93909168008091D9
:1000F0006700981761F0E0916700EF5FEF70E093A1
:100100006700F0E0E758FF4F80818CB901C0559837
:10011000FF91EF919F918F910F900FBE0F901F90C5
:100120001895109268001092670010926600109265
:10013000650097FF03C022E02BB99F7790BD89B976
:1001400088E98AB986E880BD08959091660080911B
:100150006500981789F0E0916500EF5FEF70E0931C
:100160006500F0E0E759FF4F808190916400392FDE
:1001700020E0280F311D02C020E031E0C9010895C0
:10018000909168009F5F9F70209167009217E1F344
:10019000E92FF0E0E758FF4F808390936800559A6D
:1001A0000895CF93DF93EC0101C0EADF89918111BB
:1001B000FCCFDF91CF910895CF93DF93EC0101C085
:1001C000DFDFFE01219684918111FACFDF91CF917B
:1001D0000895AD9A0895AD9883ED90E30197F1F7F6
:1001E00000C0000008951F920F920FB60F921124C5
:1001F0002F933F934F935F936F937F938F939F932F
:10020000AF93BF93EF93FF93C598C49AC39A06C068
:10021000C498C398E0DF81E030DFDBDF839BF8CF59
:10022000C59AC498C39A06C0C598C398D4DF82E023
:1002300024DFCFDF839BF8CFC59AC49AC39806C04A
:10024000C598C498C8DF83E018DFC3DF839BF8CF6D
:10025000C598C498C398FF91EF91BF91AF919F91BA
:100260008F917F916F915F914F913F912F910F905F
:100270000FBE0F901F901895F8DE8B98BD9ABC9A10
:10028000BB9AA59A939AC598C498C3988BB780686F
:100290008BBF9FDF85B78F78806285BF85B7806809
:0C02A00085BF78948895FECFF894FFCFBE
:0402AC00DF3D6300CF
:00000001FF
