:1000000012C02CC02BC02AC029C028C027C026C0BF
:1000100025C024C023C04BC021C020C01FC01EC0AB
:100020001DC01CC01BC011241FBECFE5D4E0DEBF25
:10003000CDBF10E0A0E6B0E0E4E3F2E002C005903E
:100040000D92A436B107D9F710E0A4E6B0E001C0E4
:100050001D92A437B107E1F7BFD0EAC0D1CF10920B
:10006000690010926800109267001092660010926A
:10007000650010926400089589E189B910BC80E997
:100080008AB986E880BD089590916B0080916A00DE
:10009000981759F0E0916A00EF5FE170E0936A0011
:1000A000F0E0E459FF4F8081089580E008951F92A9
:1000B0000F920FB60F9211242F933F934F935F939C
:1000C0006F937F938F939F93AF93BF93EF93FF9320
:1000D0008CB18A3A81F08E32A1F08130E9F0823021
:1000E000D9F08330C9F08F3DB9F08D33A9F0833654
:1000F00009F050C011C091E09093690080936E00A8
:100100004AC090916900992309F445C091E0909309
:10011000680080936F003FC0982F9150933060F437
:10012000909168009923B9F191E0909367008093D2
:100130006500809370002FC08F3D21F08D3311F04A
:10014000833649F590916700992329F191E09093C6
:10015000660080936400E0916500E150E33028F48C
:10016000F0E0E05AFF4F808101C080E09091640090
:10017000981310C0E0916B00EF5FE17080916A000E
:10018000E81741F0E0936B00F0E080916500E459DE
:10019000FF4F808364DFFF91EF91BF91AF919F91FB
:1001A0008F917F916F915F914F913F912F910F9020
:1001B0000FBE0F901F9018955FDFE199FECF81E091
:1001C00090E02ED080937300E199FECF80E090E024
:1001D00027D0809372000895EFDF7894CFB7F8941A
:1001E00053DF823051F0833081F08130B9F4909147
:1001F000730098279093730011C08091720089302A
:1002000069F0809172008F5F07C08091720088232F
:1002100029F080917200815080937200CFBFDECFB1
:10022000E199FECF9FBB8EBBE09A99278DB30895CD
:04023000F894FFCF70
:04023400DF3D630047
:00000001FF
